:1000000002000375814A120096E582600302006FC8
:10001000780079007A007B007C007D00EC4D601C4C
:1000200088828983E493A3A882A9838A828B83F040
:10003000A3AA82AB831CBCFFE31D80E07582007520
:1000400083007C007D00EC4D600AE4F0A31CBCFF43
:10005000F51D80F27582007583007C007D00EC4DFB
:10006000600AE4F0A31CBCFFF51D80F2120095129B
:10007000026580FE1B5B324A004865617274204D48
:100080006F6E69746F723A20200025660A0025663B
:100090002062706D002275A7007597DE7597AD43DD
:1000A000FF8075EF0275A71075C12075A70075A9AF
:1000B0000075A900E5A930E7FB75A90375A903E55B
:1000C000A930E7FB43A41075E10175E20075E34038
:1000D000759810858E8E758DE6858D8B53890F43AF
:1000E0008920D28ED299758200225389F0438901EA
:1000F000C28C22AA82438E407592B87593FF859276
:10010000947591047B00C3EB9A500BE59130E7FBAB
:1001100053917F0B80F075910022AA82AB83BA00C5
:1001200004BB0001227582FAC002C0031200F375FD
:1001300082FA1200F37582FA1200F37582FA120045
:10014000F3D003D0021ABAFF011B80D2D2A5758268
:10015000281200F3C2A522AA828AE0A2E792A1A2F5
:10016000E692A2A2E592A3A2E492A4C00212014CDC
:100170007582281200F3D0028AE0A2E392A1A2E2E3
:1001800092A2A2E192A3A2E092A402014CAA82D27E
:10019000A68A8212015790000202011AAA82C2A600
:1001A0008A8212015790000502011AC2A59000141C
:1001B00012011A75823312019C75823312019C75EB
:1001C000823212019C75822812019C75820C1201E8
:1001D0009C75820112019C90001402011AAA82AB44
:1001E00083ACF07402B509047DC080027D808D82ED
:1001F000C002C003C00412019C90000512011AD075
:1002000004D003D0027D007E00ED2AFFEE3BF88C87
:10021000018F82888389F012041EFF60208F82C0C4
:1002200002C003C004C005C00612018DD006D0056F
:10023000D004D003D0020DBD00CF0E80CC300024FE
:100240008D028E03C3EA9410EB6480948050157580
:100250008220C002C00312018DD003D0020ABA006E
:10026000E30B80E0221201AB1200EA9001F41201CC
:100270001A7474C0E07400C0E07480C0E0120556C7
:10028000158115811581750901D20090007975F0ED
:10029000801201DD758A00758C00C28D2081FD30D1
:1002A00081FDD28C7A00308108108D0280F80A809E
:1002B000F5208108108D0280F80A80F5C28C8A82B0
:1002C0001204DDAA82AB83ACF0FDC002C003C004FF
:1002D000C00590000075F080744712043AAA82AB02
:1002E00083ACF0FDE58124FCF581858C82C002C0E1
:1002F00003C004C0051204DDAE82AF83A8F0F9C0CC
:1003000006C007C000C00190000075F08074431261
:10031000043AAE82AF83A8F0F9E58124FCF581D0E0
:1003200005D004D003D002C006C007C000C0018AB7
:10033000828B838CF0ED1204E8AA82AB83ACF0FDD3
:10034000E58124FCF581AE8A7F008E828F83C00216
:10035000C003C004C00512060CAE82AF83A8F0F93A
:10036000D005D004D003D002C006C007C000C00131
:100370008A828B838CF0ED1204E8AA82AB83ACF006
:10038000FDE58124FCF581C002C003C004C00590D6
:10039000F4FC75F032743412043AAA82AB83ACF0E8
:1003A000FDE58124FCF581C002C003C004C00590B6
:1003B000000075F0707442120619AA82AB83ACF08B
:1003C000FDE58124FCF581C002C003C004C005C066
:1003D00002C003C004C005748AC0E07400C0E074A9
:1003E00080C0E0120556E58124F9F581748EC0E0E5
:1003F0007400C0E07480C0E0740AC0E07400C0E023
:100400007440C0E01205C6E58124F6F58175090245
:10041000D20090000A75F0401201DD02029420F72C
:100420001430F6148883A88220F507E6A883758324
:100430000022E280F7E49322E0221207BABC000314
:10044000020759EF60FA30D502B2D1E583B4FF0359
:1004500002076FE582B4FF0302076F25834007247C
:1004600082400B020759248314500302076FF58260
:10047000EA8DF0A4A8F0EA8EF0A428F8E435F0F9AB
:10048000EB8DF0A428E935F0F9E433CA8FF0A42904
:10049000F9EA35F0FAEBF88EF0A429F9EA35F0FA2A
:1004A000E433FBEC8DF0A429F9EA35F0FAE43BFBE8
:1004B000E88FF0A42AFAEB35F0FBE433CCFD8EF0A4
:1004C000A42AFAEB35F0FBE43CFCED8FF0A42BFB07
:1004D000EC35F0FC20E703120787020738E4AC8212
:1004E000FBFAF974860207F11207BA7900E583B5C1
:1004F0008202800D50031207FBE583C39582120828
:1005000015E5D0C465D020E117EA2DFAEB3EFBECEF
:100510003FFC50097401120815EC4480FC020738B6
:10052000C3EA9DFAEB9EFBEC9FFC500FC3E499F9E4
:10053000E49AFAE49BFBE49CFCB2D1120787020721
:10054000380211E485823785833885F039851B3A76
:10055000900541020C37C008858108E50824FBF5A9
:100560003AE50824FBF8863708863808863990056E
:1005700041120C37D00822AA82AB22AC23AD248BC7
:10058000828C838DF0EA1211F90522E4B52202056E
:10059000232285822285832385F02485253785269D
:1005A0003885273985283A900577120C37AA82AB0F
:1005B00083AC22AD23AE248C828D838EF0E41211A5
:1005C000F98A828B8322C008858108E50824F8F522
:1005D0003AE50824FBF88622088623088624E508E5
:1005E00024F8F88637088638088639900577120C83
:1005F00037AA82AB83AC22AD23AE248C828D838E4E
:10060000F0E41211F98A828B83D00822AC83AB828A
:100610007A007900748E02121B1207BA30D502B22A
:10062000D1BF0009BC000302077C02076FBC0003B6
:10063000020759E583B4FF0BE582B4FF0302077C90
:10064000020759E582B4FF0302076FC39583500781
:10065000247F400B020759248014500302076FC007
:10066000E0E4CCCBCAF98D1C8E1D8F1EEF54F0C474
:10067000F51F758306851FF0EB84F582E9C4F9EA5E
:10068000C4FAEBC4FBEC540FC47803D6FC18EBD6C9
:10069000FB18EAD6FA8582F0EDA4A8F0FD8582F079
:1006A000EEA428FEE435F0F88582F0EFA428FFE4FC
:1006B00035F0F8E99DF9EA9EFAEB9FFBEC98FCAD6A
:1006C0001CAE1DAF1E30E7101582E92DF9EA3EFA87
:1006D000EB3FFBE43CFC80EDC082D58398C3E9335B
:1006E000F9EA33FAEB33FBEC33FCC3E99DEA9EEB0A
:1006F0009FEC9400B3E413F9D002D0E0C44AFAD0DE
:1007000003D0E0C44BFBD004D0E0F5F0540FC44C50
:10071000FCD082158230F40FD3EC13FCEB13FBEA10
:1007200013FAE913F90582E930E70A74012AFAE4B9
:100730003BFBE43CFC020750B98003EA13B34010D2
:10074000EA2401FAE43BFBE43CFC50047C80058293
:10075000BC000EBB000BBA0008E4F5F0F583F5828F
:1007600022A2D1E582138CF092F78B838A8222E455
:10077000F583F58275F080F4A2D11322E4F583F5B8
:100780008275F0C0747F227804EC7011E58224F841
:10079000500AF582E4C9CACBFCD8EF22EC782005D8
:1007A0008220E713D5820122C3E933F9EA33FAEB59
:1007B00033FBEC33FCD8EA158222AA82AB83A2F782
:1007C0003392D16002D2F7F582ACF0E58124F9F8DA
:1007D000E6FD08E6FE0886F008E6A2F73392D5604B
:1007E00002D2F7F583AFF022FCABF0AA83A98274A2
:1007F0009EC2D1F582120787020738E582C583F5CC
:1008000082A2D133A2D592D11392D5ECCFFCEBCEFC
:10081000FBEACDFA226040F82582500274FFF5828F
:10082000E824F8501ECCCBCAF9E4CC24F85014CB01
:10083000CAF9E4CB24F8500BCAF9E4CA24F85003EF
:1008400079002224086010F8C3EC13FCEB13FBEAD8
:1008500013FAE913F9D8F122AA827469C0E0740886
:10086000C0E0C029C02A8A82220530E4B5300205E2
:100870003122AA8274302AFA24C6500A74072AFA4E
:100880003001034302208A82020858E582FAC454E8
:100890000FF582C002120872D002740F5AF582025C
:1008A0000872AA2BAB2CAC2DAD2EAE2F753620EED8
:1008B0002EFEED235401FF4206EA2AFAEB33FBEC4D
:1008C00033FCED33FDC3EE95324008EEC39532FEA6
:1008D000430201D536D98A2B8B2C8C2D8D2E8E2F51
:1008E000227847E624D075F00AA4FA7848E624D0A6
:1008F0002AFA78468603BB2D04C3E49AFA753201BE
:10090000C3E464808AF063F08095F0502975360363
:100910008A0374F62536401C0532E53614243BF86C
:10092000E536243BF98704A604772E1BEBFA600416
:10093000053680DE8B02EA30E70D783C8603783D91
:10094000A603783C762E0AE534600AE53404FB25DC
:1009500032F5328005300C020532783B8603E4BB69
:100960002D0104FB70062007033008020532300514
:1009700003020A28300657EB600C75822DC0021264
:100980000858D002801C30070C75822BC002120858
:1009900058D002800D30080A758220C00212085813
:1009A000D002783C8604BC2E0C758230C00212083E
:1009B00058D0021533AC331533C3E5329C400302E3
:1009C0000A6C758230C002120858D00280E7AC333E
:1009D0001533C3E5329C500C758220C002120858B2
:1009E000D00280EA783B8604BC2D0C75822DC002B3
:1009F000120858D002801C30070C75822BC00212DE
:100A00000858D002800D30080A758220C0021208F2
:100A100058D002783C8604BC2E52758230C0021237
:100A20000858D00215338044EB600E75822DC00249
:100A3000120858D0021533802030070E75822BC063
:100A400002120858D0021533800F30080C7582202E
:100A5000C002120858D0021533783C8603BB2E0C16
:100A6000758230C002120858D0021533753601C2A3
:100A70000EE536243BF88603BB4503020B29BB2E4B
:100A8000348A03C3E464808BF063F08095F0500FE8
:100A9000758230C003120858D0031B8B0280E48B90
:100AA00002D20EE5347038200C03020B2975822E19
:100AB0001208588074300E278A03EB30E71FC3E416
:100AC00064808534F063F08095F0500C758230C0FE
:100AD00003120858D00315340B8B0280DD8B0230D3
:100AE0000E0EC3E464808534F063F08095F05021ED
:100AF000E536243BF886038B82C002120858D002E8
:100B0000300E0EE536243BF88603BB2E028002151C
:100B1000341533C3E464808534F063F08095F0408D
:100B200003200E050536020A71C3E464808534F0A3
:100B300063F08095F0500A758230120858153480A1
:100B4000E830050FAA331533EA60087582201208D1
:100B50005880F122E5347003300C0D74072534FA07
:100B6000E533C39AF5338006E53324FAF533753659
:100B700000783B8602BA2B0F20070C783B762020AA
:100B800008057536010533200519AA33C3E46480CE
:100B90008AF063F08095F0500A758220120858158B
:100BA0003380E7C20EE536243BF88602BA000280A5
:100BB00069BA451F3001027665C3E464808534F06C
:100BC00063F08095F0500A75823012085815348011
:100BD000E8D20EC3E5369402E433FA7014EA700EDC
:100BE000C3E464808534F063F08095F04003300EF8
:100BF00016E536243BF886028A82120858E5362428
:100C0000FD50121534800E7402B53609300C06758D
:100C1000822E1208580536020BA5300519AA33C3D7
:100C2000E464808AF063F08095F0500A75822012A7
:100C30000858153380E72285822985832AE4F53018
:100C4000F531AA37AB38AC398A828B838CF0120429
:100C50001EFD74012AF537E43BF5388C39EDFA7046
:100C6000030211DDBA250280030211D5C205C206B6
:100C7000C207C208C209C20AC20BC20CC202C20326
:100C8000C2047532007533007534FFAB37AC38AD34
:100C9000398B828C838DF012041EFAA3AB82AC8355
:100CA0008B378C388D39BA25078A82120858809282
:100CB0008A06BE3000402E8A06EE24C6402774FF06
:100CC000B53413E53375F00AA4FEEA24D02EF533CB
:100CD00070BFD20680BBE53475F00AA4FEEA24D0CA
:100CE0002EF53480ACBA2E0A74FFB534A4753400E6
:100CF000809F8A06BE6100400E8A06EE248540076A
:100D00005302DFD2018002C201BA20028075BA23E9
:100D100003020D92BA2A03020D97BA2B02805FBA22
:100D20002D028055BA4202805FBA4303020DDCBA3D
:100D30004403020F17BA4503020F31BA4603020FEC
:100D40002DBA4703020F35BA4903020F17BA4C02F6
:100D5000803BBA4E03020F39BA4F03020F1EBA503E
:100D600003020EB0BA5303020E00BA5503020F235A
:100D7000BA5803020F28020F63D205020C91D20762
:100D8000020C91D208020C91D20A020C91D20B02F1
:100D90000C91D20C020C9174FFB53420300A0BE593
:100DA0003A14F8883A8633020C91E53A24FEF88822
:100DB0003A8606088607188E33020C91300A0BE536
:100DC0003A14F8883A8634020C91E53A24FEF88801
:100DD0003A8606088607188E34020C91300A0AE516
:100DE0003A14F8883A8602800FE53A24FEF8883AE9
:100DF0008603088604188B028A82120858020F683C
:100E0000E53A24FDF8883A86030886040886051822
:100E1000188B2B8C2C8D2D8B828C838DF012135E76
:100E2000AB82AC838B3574FFB53403853534200534
:100E30001DC3E53595335016E533C39535F533AB12
:100E4000331533EB600875822012085880F1852B2A
:100E500082852C83852DF012041EFBFA6029AB34A9
:100E60001534C3E464808BF063F08095F050188AE9
:100E700082120858AB2BAC2CAD2D0BBB00010C8B98
:100E80002B8C2C8D2D80C7200503020F68C3E53500
:100E900095334003020F68E533C39535F533AB3323
:100EA0001533EB7003020F6875822012085880EE2C
:100EB000E53A24FDF8883A86030886040886051872
:100EC000188B2B8C2C8D2DE52DFB30E7047A43807D
:100ED00013EB546060047A50800AEB30E6047A49E0
:100EE00080027A588A82C00212085875823A120823
:100EF00058758230120858758278120858D002BA94
:100F00004902800BBA50028006852C8212088B851C
:100F10002B8212088B8051D20975320A804A7532B1
:100F200008804575320A8040753210803BD20280BD
:100F300037D2038033D204802FE53A24FDF8883A73
:100F4000860308860408860518188B2B8C2C8D2D9B
:100F50008B828C838DF0E5301211F9A3E5311211EB
:100F6000F980058A82120858200206200303300403
:100F700070E53A24FCF8883A86030886040886055A
:100F80000886061818188B2B8C2C8D2D8E2EE52B91
:100F9000E52CE52DE52E8B828C838DF0EE12123F31
:100FA00074FFB53403753406300427747F552EFB67
:100FB0008B2FE52FEB2BFB8B2FE52D30E7067401F4
:100FC000452FF52FE52F246840067499252F400200
:100FD000D203300306120B54020C421208E1020C39
:100FE00042E5327003020C427B40300A2BE53A1492
:100FF000F8883AE6FC3395E0FDFEFF8C2B8D2C8EB5
:101000002D8F2E20095EAC2B7D007E007F008C2B67
:101010008D2C8E2D8F2E804C300B1FE53A24FCF842
:10102000883A860408860508860608860718181870
:101030008C2B8D2C8E2D8F2E802AE53A24FEF8885D
:101040003A860408860518ED3395E0FEFF8C2B8D5B
:101050002C8E2D8F2E20090CAC2BAD2C7E007F000A
:101060008E2D8F2E300C43E52B452C452D452E60C3
:10107000397408B5320C758230C003120858D00399
:1010800080287410B53223758230C003120858D0FE
:101090000330010C758278C003120858D003800A0F
:1010A000758258C003120858D003300925AC2BAD07
:1010B0002CAE2DE52EFF30E717C3E49CFCE49DFD2C
:1010C000E49EFEE49FFF8C2B8D2C8E2D8F2E8002B4
:1010D000C209753500D20D8B00752F00C0001208B3
:1010E000A2D000200D0DE52FC4FCE6FD4CF61888BB
:1010F000038002A62F0535B20DE52B452C452D4565
:101100002E70D68803E533700375330120061A204C
:101110000517E53504FCC39533500E758220C003D6
:10112000120858D003153380E930090E75822DC09E
:1011300003120858D00315338024E53560203007AA
:101140000E75822BC003120858D0031533800F3060
:10115000080C758220C003120858D00315332005EF
:101160001EAC331533C3E5359C50273006047C3064
:1011700080027C208C82C003120858D00380E2C316
:10118000E53595335009E533C39535F5338003755F
:1011900033008B00AB351535EB6022B20D200D0A04
:1011A00008E6C4540FFB8B2F80078603740F5BF592
:1011B0002F852F82C000120872D00080D72005032F
:1011C000020C42AB331533EB7003020C42758220E4
:1011D00012085880EE8A82120858020C428530822A
:1011E00085318322AA82BA0A0810990280FB759978
:1011F0000D10990280FB8A992220F71030F6118891
:1012000083A88220F507F6A88375830022F280F771
:10121000F022FCABF0AA83A982749EF582C2D1ECC5
:1012200030E716D2D1E9F42401F9EAF43400FAEBFC
:10123000F43400FBECF43400FC120787020738C0DA
:10124000E0F84582458345F07009F5F0FBFCFDFEB2
:1012500002130DE823A2F792E0F8A982AA83D2F73D
:10126000ABF07C007E07C3749798404074FF2EFE5D
:10127000740A89F0A4F985F082740A8AF0A4FA85C8
:10128000F083740A8BF0A4FB740529F9EA3582FA1D
:10129000EB3583FB740035F0FCC3EC13FCEB13FB64
:1012A000EA13FAE913F908EC70EF80BAE8C3947F07
:1012B000F88B838EF0E4FBFCFDFEFF08C3E933F9F5
:1012C000EA33FAE58333F583EB3BD4FBEC3CD4FC07
:1012D000ED3DD4FDEE3ED4FEEF3FD4FF602D05F092
:1012E00074052BD4FBE43CD4FCE43DD4FDE43ED4B3
:1012F000FEE43FD4FF758204C3EF13FFEE13FEED4F
:1013000013FDEC13FCEB13FBD582EDD8AF783BD08B
:10131000E020E704762B8002762D087906E7C45496
:101320000F4430F608B90603762E08E7540F443010
:10133000F60819B902E7764508E5F020E704762BB0
:101340008004762DF4040875F00A844430F608E52C
:10135000F04430F608E4F690003B75F04022AA8293
:10136000AB83ACF07D007E008A828B838CF012040C
:101370001EFFA3AA82AB83EF60070DBD00EA0E80BB
:10138000E78D828E83220000000000000000000034
:00000001FF
